{
  "transactions": [
    {
      "hash": "0x657c048209c983c1ccd0e2737ede6967ae13ba090017d9bc873e5166a1fc6421",
      "transactionType": "CREATE",
      "contractName": "MockDEX",
      "contractAddress": "0xa1ac6c241b9fc3aa5c9eee4eb2232dddee3c109a",
      "function": null,
      "arguments": [
        "0x6B175474E89094C44Da98b954EedeAC495271d0F",
        "0xA0b86991c6218b36c1d19D4a2e9Eb0cE3606eB48"
      ],
      "transaction": {
        "from": "0xf39fd6e51aad88f6f4ce6ab8827279cfffb92266",
        "gas": "0xb8178",
        "value": "0x0",
        "input": "0x60c03461010657601f6109e638819003918201601f19168301916001600160401b0383118484101761010a57808492604094855283398101031261010657610052602061004b8361011e565b920161011e565b608082905260a08190526001600160a01b039182165f81815260208181526040808320959094168252938452828120670de0b6b3a764000090819055818552838220928252919093529181902091909155516108b390816101338239608051818181607b0152818160cb015281816103e501526106a7015260a051818181610166015281816103600152818161039201528181610416015281816105210152818161073c015281816107ce01526108000152f35b5f80fd5b634e487b7160e01b5f52604160045260245ffd5b51906001600160a01b03821682036101065756fe60806040526004361015610011575f80fd5b5f3560e01c8063503fa44f146104be57806389a302711461050c578063baaa61be146104be578063c515ee231461049d578063db068e0e146103c1578063df791e50146100ae5763e0bab4c414610066575f80fd5b346100aa575f3660031901126100aa576040517f00000000000000000000000000000000000000000000000000000000000000006001600160a01b03168152602090f35b5f80fd5b346100aa576100bc3661057c565b916001600160a01b03908116917f0000000000000000000000000000000000000000000000000000000000000000909116908282149081801561038f575b610103906105b6565b6001600160a01b03169182149081801561035d575b61012190610602565b61012d8385141561064e565b841561032a57835f525f60205260405f20835f5260205260405f205480156102f657610162670de0b6b3a76400009187610687565b04917f00000000000000000000000000000000000000000000000000000000000000006001600160a01b03169085821490816102ee575b50156102c657505064e8d4a5100081029080820464e8d4a5100014901517156102b257915b6040516323b872dd60e01b8152336004820152306024820152604481018590526020816064815f865af1801561028a57610295575b5060405163a9059cbb60e01b8152336004820152602481018490526020816044815f875af1801561028a576020957ffa2dda1cc1b86e41239702756b13effbc1a092b5c57e3ad320fbe4f3b13fe2359260409261025f575b5081519081528587820152a3604051908152f35b61027e90883d8a11610283575b610276818361082f565b810190610865565b61024b565b503d61026c565b6040513d5f823e3d90fd5b6102ad9060203d60201161028357610276818361082f565b6101f3565b634e487b7160e01b5f52601160045260245ffd5b919391816102e4575b50156101be579164e8d4a510009004916101be565b90508214856102cf565b905087610199565b60405162461bcd60e51b815260206004820152600c60248201526b14985d19481b9bdd081cd95d60a21b6044820152606490fd5b60405162461bcd60e51b815260206004820152600b60248201526a16995c9bc8185b5bdd5b9d60aa1b6044820152606490fd5b507f00000000000000000000000000000000000000000000000000000000000000006001600160a01b03168314610118565b507f00000000000000000000000000000000000000000000000000000000000000006001600160a01b031684146100fa565b346100aa5760203660031901126100aa576004358015610469576001600160a01b037f000000000000000000000000000000000000000000000000000000000000000081165f818152602081815260408083207f0000000000000000000000000000000000000000000000000000000000000000909516835293815283822085905581815283822092825291909152206ec097ce7bc90715b34b9f1000000000919091049055005b60405162461bcd60e51b815260206004820152600c60248201526b496e76616c6964207261746560a01b6044820152606490fd5b346100aa5760206104b66104b03661057c565b9161069a565b604051908152f35b346100aa5760403660031901126100aa576104d7610550565b6104df610566565b6001600160a01b039182165f90815260208181526040808320949093168252928352819020549051908152f35b346100aa575f3660031901126100aa576040517f00000000000000000000000000000000000000000000000000000000000000006001600160a01b03168152602090f35b600435906001600160a01b03821682036100aa57565b602435906001600160a01b03821682036100aa57565b60609060031901126100aa576004356001600160a01b03811681036100aa57906024356001600160a01b03811681036100aa579060443590565b156105bd57565b60405162461bcd60e51b815260206004820152601760248201527f556e737570706f7274656420696e70757420746f6b656e0000000000000000006044820152606490fd5b1561060957565b60405162461bcd60e51b815260206004820152601860248201527f556e737570706f72746564206f757470757420746f6b656e00000000000000006044820152606490fd5b1561065557565b60405162461bcd60e51b815260206004820152600a60248201526929b0b6b2903a37b5b2b760b11b6044820152606490fd5b818102929181159184041417156102b257565b6001600160a01b039081167f0000000000000000000000000000000000000000000000000000000000000000909116818114928380156107fd575b6106de906105b6565b6001600160a01b0316908114938480156107cb575b6106fc90610602565b6107088284141561064e565b825f525f60205260405f20825f5260205260405f20549081156107c157670de0b6b3a76400009161073891610687565b04937f00000000000000000000000000000000000000000000000000000000000000006001600160a01b031692831490816107b9575b50156107955750505064e8d4a5100081029080820464e8d4a5100014901517156102b25790565b826107af575b50506107a45790565b64e8d4a51000900490565b1490505f8061079b565b90505f61076e565b5050505050505f90565b507f00000000000000000000000000000000000000000000000000000000000000006001600160a01b031682146106f3565b507f00000000000000000000000000000000000000000000000000000000000000006001600160a01b031683146106d5565b90601f8019910116810190811067ffffffffffffffff82111761085157604052565b634e487b7160e01b5f52604160045260245ffd5b908160209103126100aa575180151581036100aa579056fea2646970667358221220a1571acf6353f763e268a2400891cb644a3d0725249967bb0eff3f2822d4842364736f6c634300081a00330000000000000000000000006b175474e89094c44da98b954eedeac495271d0f000000000000000000000000a0b86991c6218b36c1d19d4a2e9eb0ce3606eb48",
        "nonce": "0xc85",
        "chainId": "0x1"
      },
      "additionalContracts": [],
      "isFixedGasLimit": false
    },
    {
      "hash": "0xc16e11452f3e7e5f1a36bb3723ca7c9e13a06808bfc172dc3b68c1b70c7eee40",
      "transactionType": "CALL",
      "contractName": null,
      "contractAddress": "0xea5dea84a1664fcf8ce823a08439ebfea06e35e8",
      "function": "setMockDEX(address)",
      "arguments": [
        "0xa1ac6c241B9fc3aa5C9eEE4EB2232ddDeE3C109a"
      ],
      "transaction": {
        "from": "0xf39fd6e51aad88f6f4ce6ab8827279cfffb92266",
        "to": "0xea5dea84a1664fcf8ce823a08439ebfea06e35e8",
        "gas": "0xa281",
        "value": "0x0",
        "input": "0xfd0d662a000000000000000000000000a1ac6c241b9fc3aa5c9eee4eb2232dddee3c109a",
        "nonce": "0xc86",
        "chainId": "0x1"
      },
      "additionalContracts": [],
      "isFixedGasLimit": false
    },
    {
      "hash": "0xaaff0b91a5c2fc90710a919a081cc6657eadcebd24c5f1eed4a4a7e65ebc4777",
      "transactionType": "CALL",
      "contractName": null,
      "contractAddress": "0xea5dea84a1664fcf8ce823a08439ebfea06e35e8",
      "function": "simulateYield(uint256,address)",
      "arguments": [
        "50000000000000000000",
        "0x6B175474E89094C44Da98b954EedeAC495271d0F"
      ],
      "transaction": {
        "from": "0xf39fd6e51aad88f6f4ce6ab8827279cfffb92266",
        "to": "0xea5dea84a1664fcf8ce823a08439ebfea06e35e8",
        "gas": "0xd0c6",
        "value": "0x0",
        "input": "0xa7df969f000000000000000000000000000000000000000000000002b5e3af16b18800000000000000000000000000006b175474e89094c44da98b954eedeac495271d0f",
        "nonce": "0xc87",
        "chainId": "0x1"
      },
      "additionalContracts": [],
      "isFixedGasLimit": false
    },
    {
      "hash": "0x3325eb186b11604bf51f74e28e69ba74cd486f4a6d464fa182e0846c0dbbaf25",
      "transactionType": "CALL",
      "contractName": null,
      "contractAddress": "0xea5dea84a1664fcf8ce823a08439ebfea06e35e8",
      "function": "harvestYield(address)",
      "arguments": [
        "0x6B175474E89094C44Da98b954EedeAC495271d0F"
      ],
      "transaction": {
        "from": "0xf39fd6e51aad88f6f4ce6ab8827279cfffb92266",
        "to": "0xea5dea84a1664fcf8ce823a08439ebfea06e35e8",
        "gas": "0x4107b",
        "value": "0x0",
        "input": "0xc54175a30000000000000000000000006b175474e89094c44da98b954eedeac495271d0f",
        "nonce": "0xc88",
        "chainId": "0x1"
      },
      "additionalContracts": [],
      "isFixedGasLimit": false
    }
  ],
  "receipts": [
    {
      "status": "0x1",
      "cumulativeGasUsed": "0x8d9bf",
      "logs": [],
      "logsBloom": "0x00000000000000000000000000000000000000000000000000000000000000000000000000000000000000000000000000000000000000000000000000000000000000000000000000000000000000000000000000000000000000000000000000000000000000000000000000000000000000000000000000000000000000000000000000000000000000000000000000000000000000000000000000000000000000000000000000000000000000000000000000000000000000000000000000000000000000000000000000000000000000000000000000000000000000000000000000000000000000000000000000000000000000000000000000000000",
      "type": "0x2",
      "transactionHash": "0x657c048209c983c1ccd0e2737ede6967ae13ba090017d9bc873e5166a1fc6421",
      "transactionIndex": "0x0",
      "blockHash": "0xe13448fac2aa7c30df7166e4de40ce8d99f09be46f4cbac29bcd5f83f96c4e92",
      "blockNumber": "0x16832d8",
      "gasUsed": "0x8d9bf",
      "effectiveGasPrice": "0x1f92788",
      "blobGasPrice": "0x1",
      "from": "0xf39fd6e51aad88f6f4ce6ab8827279cfffb92266",
      "to": null,
      "contractAddress": "0xa1ac6c241b9fc3aa5c9eee4eb2232dddee3c109a"
    },
    {
      "status": "0x1",
      "cumulativeGasUsed": "0x75a7",
      "logs": [],
      "logsBloom": "0x00000000000000000000000000000000000000000000000000000000000000000000000000000000000000000000000000000000000000000000000000000000000000000000000000000000000000000000000000000000000000000000000000000000000000000000000000000000000000000000000000000000000000000000000000000000000000000000000000000000000000000000000000000000000000000000000000000000000000000000000000000000000000000000000000000000000000000000000000000000000000000000000000000000000000000000000000000000000000000000000000000000000000000000000000000000",
      "type": "0x2",
      "transactionHash": "0xc16e11452f3e7e5f1a36bb3723ca7c9e13a06808bfc172dc3b68c1b70c7eee40",
      "transactionIndex": "0x0",
      "blockHash": "0x3420ec9e9619d6d5439713511df997d4da96f6634324f6608e1fa79b169d65ce",
      "blockNumber": "0x16832d9",
      "gasUsed": "0x75a7",
      "effectiveGasPrice": "0x1bbae4e",
      "blobGasPrice": "0x1",
      "from": "0xf39fd6e51aad88f6f4ce6ab8827279cfffb92266",
      "to": "0xea5dea84a1664fcf8ce823a08439ebfea06e35e8",
      "contractAddress": null
    },
    {
      "status": "0x1",
      "cumulativeGasUsed": "0x8ec1",
      "logs": [
        {
          "address": "0xea5dea84a1664fcf8ce823a08439ebfea06e35e8",
          "topics": [
            "0x02e0d287946405857554775bd002c9ab931dfa8402375826ff0a52d6f6124f6f",
            "0x0000000000000000000000006b175474e89094c44da98b954eedeac495271d0f"
          ],
          "data": "0x000000000000000000000000000000000000000000000002b5e3af16b1880000000000000000000000000000000000000000000000000000000000000000000000000000000000000000000000000000000000000000000821ab0d4414980000",
          "blockHash": "0xff0dda32180a92867d3ce4f5f06b3376d1910f2a141fde84e359b62f99328526",
          "blockNumber": "0x16832da",
          "blockTimestamp": "0x68f3da52",
          "transactionHash": "0xaaff0b91a5c2fc90710a919a081cc6657eadcebd24c5f1eed4a4a7e65ebc4777",
          "transactionIndex": "0x0",
          "logIndex": "0x0",
          "removed": false
        }
      ],
      "logsBloom": "0x00000000000000000000000000000000000000000000000000000002000000000000000000000000000000000000000000000000000000000000000000000000000004000000000000000000000000000000000000000000000000000000002000000000000000000008000000000000000000000000000000000000000040200000000000000000000000000000000000000000000000000000000400000000000000000000000000000000000000000000000000000000000000000000000000000000000000000000000000000000000000000000000000000000000000000000000000000000000000000000200000000000000000100000000000000000",
      "type": "0x2",
      "transactionHash": "0xaaff0b91a5c2fc90710a919a081cc6657eadcebd24c5f1eed4a4a7e65ebc4777",
      "transactionIndex": "0x0",
      "blockHash": "0xff0dda32180a92867d3ce4f5f06b3376d1910f2a141fde84e359b62f99328526",
      "blockNumber": "0x16832da",
      "gasUsed": "0x8ec1",
      "effectiveGasPrice": "0x18456cb",
      "blobGasPrice": "0x1",
      "from": "0xf39fd6e51aad88f6f4ce6ab8827279cfffb92266",
      "to": "0xea5dea84a1664fcf8ce823a08439ebfea06e35e8",
      "contractAddress": null
    },
    {
      "status": "0x1",
      "cumulativeGasUsed": "0x2c771",
      "logs": [],
      "logsBloom": "0x00000000000000000000000000000000000000000000000000000000000000000000000000000000000000000000000000000000000000000000000000000000000000000000000000000000000000000000000000000000000000000000000000000000000000000000000000000000000000000000000000000000000000000000000000000000000000000000000000000000000000000000000000000000000000000000000000000000000000000000000000000000000000000000000000000000000000000000000000000000000000000000000000000000000000000000000000000000000000000000000000000000000000000000000000000000",
      "type": "0x2",
      "transactionHash": "0x3325eb186b11604bf51f74e28e69ba74cd486f4a6d464fa182e0846c0dbbaf25",
      "transactionIndex": "0x0",
      "blockHash": "0x16a9e0737dfb609d6cfff8cf1f4838a4aa2b0e3517c6cc8e3709722cd07f188f",
      "blockNumber": "0x16832db",
      "gasUsed": "0x2c771",
      "effectiveGasPrice": "0x153eb65",
      "blobGasPrice": "0x1",
      "from": "0xf39fd6e51aad88f6f4ce6ab8827279cfffb92266",
      "to": "0xea5dea84a1664fcf8ce823a08439ebfea06e35e8",
      "contractAddress": null
    }
  ],
  "libraries": [],
  "pending": [],
  "returns": {},
  "timestamp": 1760811607136,
  "chain": 1,
  "commit": "b713a5a"
}