{
  "transactions": [
    {
      "hash": "0x9aa95f719de038b2c8f37fd7cff66531b0e0cb903838fae9d3ff4694b08d0564",
      "transactionType": "CALL",
      "contractName": null,
      "contractAddress": "0x6b175474e89094c44da98b954eedeac495271d0f",
      "function": "approve(address,uint256)",
      "arguments": [
        "0x312D098B64e32ef04736662249bd57AEfe053750",
        "100000000000000000000"
      ],
      "transaction": {
        "from": "0xf39fd6e51aad88f6f4ce6ab8827279cfffb92266",
        "to": "0x6b175474e89094c44da98b954eedeac495271d0f",
        "gas": "0xf90a",
        "value": "0x0",
        "input": "0x095ea7b3000000000000000000000000312d098b64e32ef04736662249bd57aefe0537500000000000000000000000000000000000000000000000056bc75e2d63100000",
        "nonce": "0xbc1",
        "chainId": "0x1"
      },
      "additionalContracts": [],
      "isFixedGasLimit": false
    },
    {
      "hash": "0xc4608640b21b1457bbcd713ea5c63a7bce2d5f674a59ea765e9ae25993016b7f",
      "transactionType": "CALL",
      "contractName": null,
      "contractAddress": "0x312d098b64e32ef04736662249bd57aefe053750",
      "function": "depositMulti(address,uint256,address)",
      "arguments": [
        "0x6B175474E89094C44Da98b954EedeAC495271d0F",
        "100000000000000000000",
        "0xf39Fd6e51aad88F6F4ce6aB8827279cffFb92266"
      ],
      "transaction": {
        "from": "0xf39fd6e51aad88f6f4ce6ab8827279cfffb92266",
        "to": "0x312d098b64e32ef04736662249bd57aefe053750",
        "gas": "0xa0e73",
        "value": "0x0",
        "input": "0xaf67b5db0000000000000000000000006b175474e89094c44da98b954eedeac495271d0f0000000000000000000000000000000000000000000000056bc75e2d63100000000000000000000000000000f39fd6e51aad88f6f4ce6ab8827279cfffb92266",
        "nonce": "0xbc2",
        "chainId": "0x1"
      },
      "additionalContracts": [],
      "isFixedGasLimit": false
    }
  ],
  "receipts": [
    {
      "status": "0x1",
      "cumulativeGasUsed": "0xb44e",
      "logs": [
        {
          "address": "0x6b175474e89094c44da98b954eedeac495271d0f",
          "topics": [
            "0x8c5be1e5ebec7d5bd14f71427d1e84f3dd0314c0f7b2291e5b200ac8c7c3b925",
            "0x000000000000000000000000f39fd6e51aad88f6f4ce6ab8827279cfffb92266",
            "0x000000000000000000000000312d098b64e32ef04736662249bd57aefe053750"
          ],
          "data": "0x0000000000000000000000000000000000000000000000056bc75e2d63100000",
          "blockHash": "0xf5362cb9768a2a462f108e301785d77a0df3a722c9b220090ed9612b3c82c5f3",
          "blockNumber": "0x16829dd",
          "blockTimestamp": "0x68f39de8",
          "transactionHash": "0x9aa95f719de038b2c8f37fd7cff66531b0e0cb903838fae9d3ff4694b08d0564",
          "transactionIndex": "0x0",
          "logIndex": "0x0",
          "removed": false
        }
      ],
      "logsBloom": "0x00000000000000000000000000000000000000000000000000000000000000000000000000000000000000000000000000004000000000000000000000200000000000000000000000000008000000000000000000000000000000000000000010000000000000000000000100000000000000000000000000000000000000000000000000000000000000000000000000000000000000010000000000000000020000000000000000000000000000000000000000000000000000000000000000000000000000200000000000000000000002002000000000000020000000000010000000000000000000000000000000000000000000000000000000000000",
      "type": "0x2",
      "transactionHash": "0x9aa95f719de038b2c8f37fd7cff66531b0e0cb903838fae9d3ff4694b08d0564",
      "transactionIndex": "0x0",
      "blockHash": "0xf5362cb9768a2a462f108e301785d77a0df3a722c9b220090ed9612b3c82c5f3",
      "blockNumber": "0x16829dd",
      "gasUsed": "0xb44e",
      "effectiveGasPrice": "0x46dbfdc",
      "blobGasPrice": "0x1",
      "from": "0xf39fd6e51aad88f6f4ce6ab8827279cfffb92266",
      "to": "0x6b175474e89094c44da98b954eedeac495271d0f",
      "contractAddress": null
    },
    {
      "status": "0x1",
      "cumulativeGasUsed": "0x747dc",
      "logs": [
        {
          "address": "0x6b175474e89094c44da98b954eedeac495271d0f",
          "topics": [
            "0xddf252ad1be2c89b69c2b068fc378daa952ba7f163c4a11628f55a4df523b3ef",
            "0x000000000000000000000000f39fd6e51aad88f6f4ce6ab8827279cfffb92266",
            "0x000000000000000000000000312d098b64e32ef04736662249bd57aefe053750"
          ],
          "data": "0x0000000000000000000000000000000000000000000000056bc75e2d63100000",
          "blockHash": "0xbc76a4271778359c8cfb93fac9879a36062b120875899b1ae29f08a2b65d4fc7",
          "blockNumber": "0x16829de",
          "blockTimestamp": "0x68f39de8",
          "transactionHash": "0xc4608640b21b1457bbcd713ea5c63a7bce2d5f674a59ea765e9ae25993016b7f",
          "transactionIndex": "0x0",
          "logIndex": "0x0",
          "removed": false
        },
        {
          "address": "0x87870bca3f3fd6335c3f4ce8392d69350b4fa4e2",
          "topics": [
            "0x804c9b842b2748a22bb64b345453a3de7ca54a6ca45ce00d415894979e22897a",
            "0x0000000000000000000000006b175474e89094c44da98b954eedeac495271d0f"
          ],
          "data": "0x0000000000000000000000000000000000000000001d695a829b05641653e65400000000000000000000000000000000000000000000000000000000000000000000000000000000000000000000000000000000002fdf98e3608c11197d5cc7000000000000000000000000000000000000000003afe9f04f0d02838b92c347000000000000000000000000000000000000000003eb5fc5147853df4b0d0e75",
          "blockHash": "0xbc76a4271778359c8cfb93fac9879a36062b120875899b1ae29f08a2b65d4fc7",
          "blockNumber": "0x16829de",
          "blockTimestamp": "0x68f39de8",
          "transactionHash": "0xc4608640b21b1457bbcd713ea5c63a7bce2d5f674a59ea765e9ae25993016b7f",
          "transactionIndex": "0x0",
          "logIndex": "0x1",
          "removed": false
        },
        {
          "address": "0x6b175474e89094c44da98b954eedeac495271d0f",
          "topics": [
            "0xddf252ad1be2c89b69c2b068fc378daa952ba7f163c4a11628f55a4df523b3ef",
            "0x000000000000000000000000312d098b64e32ef04736662249bd57aefe053750",
            "0x000000000000000000000000018008bfb33d285247a21d44e50697654f754e63"
          ],
          "data": "0x0000000000000000000000000000000000000000000000056bc75e2d63100000",
          "blockHash": "0xbc76a4271778359c8cfb93fac9879a36062b120875899b1ae29f08a2b65d4fc7",
          "blockNumber": "0x16829de",
          "blockTimestamp": "0x68f39de8",
          "transactionHash": "0xc4608640b21b1457bbcd713ea5c63a7bce2d5f674a59ea765e9ae25993016b7f",
          "transactionIndex": "0x0",
          "logIndex": "0x2",
          "removed": false
        },
        {
          "address": "0x018008bfb33d285247a21d44e50697654f754e63",
          "topics": [
            "0xddf252ad1be2c89b69c2b068fc378daa952ba7f163c4a11628f55a4df523b3ef",
            "0x0000000000000000000000000000000000000000000000000000000000000000",
            "0x000000000000000000000000312d098b64e32ef04736662249bd57aefe053750"
          ],
          "data": "0x0000000000000000000000000000000000000000000000056bc75e2d630ffffe",
          "blockHash": "0xbc76a4271778359c8cfb93fac9879a36062b120875899b1ae29f08a2b65d4fc7",
          "blockNumber": "0x16829de",
          "blockTimestamp": "0x68f39de8",
          "transactionHash": "0xc4608640b21b1457bbcd713ea5c63a7bce2d5f674a59ea765e9ae25993016b7f",
          "transactionIndex": "0x0",
          "logIndex": "0x3",
          "removed": false
        },
        {
          "address": "0x018008bfb33d285247a21d44e50697654f754e63",
          "topics": [
            "0x458f5fa412d0f69b08dd84872b0215675cc67bc1d5b6fd93300a1c3878b86196",
            "0x000000000000000000000000312d098b64e32ef04736662249bd57aefe053750",
            "0x000000000000000000000000312d098b64e32ef04736662249bd57aefe053750"
          ],
          "data": "0x0000000000000000000000000000000000000000000000056bc75e2d630ffffe0000000000000000000000000000000000000000000000000000000000000000000000000000000000000000000000000000000003afe9f04f0d02838b92c347",
          "blockHash": "0xbc76a4271778359c8cfb93fac9879a36062b120875899b1ae29f08a2b65d4fc7",
          "blockNumber": "0x16829de",
          "blockTimestamp": "0x68f39de8",
          "transactionHash": "0xc4608640b21b1457bbcd713ea5c63a7bce2d5f674a59ea765e9ae25993016b7f",
          "transactionIndex": "0x0",
          "logIndex": "0x4",
          "removed": false
        },
        {
          "address": "0x87870bca3f3fd6335c3f4ce8392d69350b4fa4e2",
          "topics": [
            "0x00058a56ea94653cdf4f152d227ace22d4c00ad99e2a43f58cb7d9e3feb295f2",
            "0x0000000000000000000000006b175474e89094c44da98b954eedeac495271d0f",
            "0x000000000000000000000000312d098b64e32ef04736662249bd57aefe053750"
          ],
          "data": "0x",
          "blockHash": "0xbc76a4271778359c8cfb93fac9879a36062b120875899b1ae29f08a2b65d4fc7",
          "blockNumber": "0x16829de",
          "blockTimestamp": "0x68f39de8",
          "transactionHash": "0xc4608640b21b1457bbcd713ea5c63a7bce2d5f674a59ea765e9ae25993016b7f",
          "transactionIndex": "0x0",
          "logIndex": "0x5",
          "removed": false
        },
        {
          "address": "0x87870bca3f3fd6335c3f4ce8392d69350b4fa4e2",
          "topics": [
            "0x2b627736bca15cd5381dcf80b0bf11fd197d01a037c52b927a881a10fb73ba61",
            "0x0000000000000000000000006b175474e89094c44da98b954eedeac495271d0f",
            "0x000000000000000000000000312d098b64e32ef04736662249bd57aefe053750",
            "0x0000000000000000000000000000000000000000000000000000000000000000"
          ],
          "data": "0x000000000000000000000000312d098b64e32ef04736662249bd57aefe0537500000000000000000000000000000000000000000000000056bc75e2d63100000",
          "blockHash": "0xbc76a4271778359c8cfb93fac9879a36062b120875899b1ae29f08a2b65d4fc7",
          "blockNumber": "0x16829de",
          "blockTimestamp": "0x68f39de8",
          "transactionHash": "0xc4608640b21b1457bbcd713ea5c63a7bce2d5f674a59ea765e9ae25993016b7f",
          "transactionIndex": "0x0",
          "logIndex": "0x6",
          "removed": false
        },
        {
          "address": "0x312d098b64e32ef04736662249bd57aefe053750",
          "topics": [
            "0xddf252ad1be2c89b69c2b068fc378daa952ba7f163c4a11628f55a4df523b3ef",
            "0x0000000000000000000000000000000000000000000000000000000000000000",
            "0x000000000000000000000000f39fd6e51aad88f6f4ce6ab8827279cfffb92266"
          ],
          "data": "0x0000000000000000000000000000000000000000000000056bd182c8dfe57000",
          "blockHash": "0xbc76a4271778359c8cfb93fac9879a36062b120875899b1ae29f08a2b65d4fc7",
          "blockNumber": "0x16829de",
          "blockTimestamp": "0x68f39de8",
          "transactionHash": "0xc4608640b21b1457bbcd713ea5c63a7bce2d5f674a59ea765e9ae25993016b7f",
          "transactionIndex": "0x0",
          "logIndex": "0x7",
          "removed": false
        },
        {
          "address": "0x312d098b64e32ef04736662249bd57aefe053750",
          "topics": [
            "0xab66d3b97d576fa9502e96e99c8679662f85a720451070b566d97ef9159d6652",
            "0x000000000000000000000000f39fd6e51aad88f6f4ce6ab8827279cfffb92266",
            "0x000000000000000000000000f39fd6e51aad88f6f4ce6ab8827279cfffb92266",
            "0x0000000000000000000000006b175474e89094c44da98b954eedeac495271d0f"
          ],
          "data": "0x0000000000000000000000000000000000000000000000056bc75e2d631000000000000000000000000000000000000000000000000000056bd182c8dfe57000",
          "blockHash": "0xbc76a4271778359c8cfb93fac9879a36062b120875899b1ae29f08a2b65d4fc7",
          "blockNumber": "0x16829de",
          "blockTimestamp": "0x68f39de8",
          "transactionHash": "0xc4608640b21b1457bbcd713ea5c63a7bce2d5f674a59ea765e9ae25993016b7f",
          "transactionIndex": "0x0",
          "logIndex": "0x8",
          "removed": false
        }
      ],
      "logsBloom": "0x00000020000008000080000000000000000000000000002008000000000000020000000001000000000000000004000000004000000000000000000000000000000020000000000000000008000000000000000000000000000000140000000010000008020000000000001100000800000000000000000000000010001100200000000080002000000000000000000000000000000000010000000400000000000000000000000000000000000000000000000000000000000000000000010082000002000000200000002040000000000002002020000000000020000020000000000000000000000000000000000040000000000000100000400000000000",
      "type": "0x2",
      "transactionHash": "0xc4608640b21b1457bbcd713ea5c63a7bce2d5f674a59ea765e9ae25993016b7f",
      "transactionIndex": "0x0",
      "blockHash": "0xbc76a4271778359c8cfb93fac9879a36062b120875899b1ae29f08a2b65d4fc7",
      "blockNumber": "0x16829de",
      "gasUsed": "0x747dc",
      "effectiveGasPrice": "0x3e1fffd",
      "blobGasPrice": "0x1",
      "from": "0xf39fd6e51aad88f6f4ce6ab8827279cfffb92266",
      "to": "0x312d098b64e32ef04736662249bd57aefe053750",
      "contractAddress": null
    }
  ],
  "libraries": [],
  "pending": [],
  "returns": {},
  "timestamp": 1760796150733,
  "chain": 1,
  "commit": null
}